{
  "contractName": "Voting",
  "abi": [
    {
      "anonymous": false,
      "inputs": [
        {
          "indexed": true,
          "internalType": "address",
          "name": "previousOwner",
          "type": "address"
        },
        {
          "indexed": true,
          "internalType": "address",
          "name": "newOwner",
          "type": "address"
        }
      ],
      "name": "OwnershipTransferred",
      "type": "event"
    },
    {
      "anonymous": false,
      "inputs": [
        {
          "indexed": false,
          "internalType": "address",
          "name": "voter",
          "type": "address"
        },
        {
          "indexed": false,
          "internalType": "uint256",
          "name": "proposalId",
          "type": "uint256"
        },
        {
          "indexed": true,
          "internalType": "uint256",
          "name": "votingSessionId",
          "type": "uint256"
        }
      ],
      "name": "ProposalRegistered",
      "type": "event"
    },
    {
      "anonymous": false,
      "inputs": [
        {
          "indexed": false,
          "internalType": "address",
          "name": "voter",
          "type": "address"
        },
        {
          "indexed": false,
          "internalType": "uint256",
          "name": "proposalId",
          "type": "uint256"
        },
        {
          "indexed": true,
          "internalType": "uint256",
          "name": "votingSessionId",
          "type": "uint256"
        }
      ],
      "name": "Voted",
      "type": "event"
    },
    {
      "anonymous": false,
      "inputs": [
        {
          "indexed": false,
          "internalType": "address",
          "name": "voterAddress",
          "type": "address"
        },
        {
          "indexed": true,
          "internalType": "uint256",
          "name": "votingSessionId",
          "type": "uint256"
        }
      ],
      "name": "VoterRegistered",
      "type": "event"
    },
    {
      "anonymous": false,
      "inputs": [
        {
          "indexed": false,
          "internalType": "uint256",
          "name": "proposalId",
          "type": "uint256"
        },
        {
          "indexed": false,
          "internalType": "string",
          "name": "description",
          "type": "string"
        },
        {
          "indexed": false,
          "internalType": "uint256",
          "name": "voteCount",
          "type": "uint256"
        },
        {
          "indexed": true,
          "internalType": "uint256",
          "name": "votingSessionId",
          "type": "uint256"
        }
      ],
      "name": "Winning",
      "type": "event"
    },
    {
      "anonymous": false,
      "inputs": [
        {
          "indexed": false,
          "internalType": "enum Voting.WorkflowStatus",
          "name": "previousStatus",
          "type": "uint8"
        },
        {
          "indexed": false,
          "internalType": "enum Voting.WorkflowStatus",
          "name": "newStatus",
          "type": "uint8"
        },
        {
          "indexed": false,
          "internalType": "uint256",
          "name": "votingSessionId",
          "type": "uint256"
        }
      ],
      "name": "WorkflowStatusChange",
      "type": "event"
    },
    {
      "inputs": [],
      "name": "owner",
      "outputs": [
        {
          "internalType": "address",
          "name": "",
          "type": "address"
        }
      ],
      "stateMutability": "view",
      "type": "function",
      "constant": true
    },
    {
      "inputs": [
        {
          "internalType": "uint256",
          "name": "",
          "type": "uint256"
        }
      ],
      "name": "proposals",
      "outputs": [
        {
          "internalType": "string",
          "name": "description",
          "type": "string"
        },
        {
          "internalType": "uint256",
          "name": "voteCount",
          "type": "uint256"
        }
      ],
      "stateMutability": "view",
      "type": "function",
      "constant": true
    },
    {
      "inputs": [],
      "name": "renounceOwnership",
      "outputs": [],
      "stateMutability": "nonpayable",
      "type": "function"
    },
    {
      "inputs": [
        {
          "internalType": "address",
          "name": "newOwner",
          "type": "address"
        }
      ],
      "name": "transferOwnership",
      "outputs": [],
      "stateMutability": "nonpayable",
      "type": "function"
    },
    {
      "inputs": [
        {
          "internalType": "address",
          "name": "",
          "type": "address"
        }
      ],
      "name": "voters",
      "outputs": [
        {
          "internalType": "bool",
          "name": "isRegistered",
          "type": "bool"
        },
        {
          "internalType": "bool",
          "name": "hasVoted",
          "type": "bool"
        },
        {
          "internalType": "uint256",
          "name": "votedProposalId",
          "type": "uint256"
        },
        {
          "internalType": "uint256",
          "name": "sessionId",
          "type": "uint256"
        }
      ],
      "stateMutability": "view",
      "type": "function",
      "constant": true
    },
    {
      "inputs": [],
      "name": "votingSessionId",
      "outputs": [
        {
          "internalType": "uint256",
          "name": "",
          "type": "uint256"
        }
      ],
      "stateMutability": "view",
      "type": "function",
      "constant": true
    },
    {
      "inputs": [],
      "name": "workflowStatus",
      "outputs": [
        {
          "internalType": "enum Voting.WorkflowStatus",
          "name": "",
          "type": "uint8"
        }
      ],
      "stateMutability": "view",
      "type": "function",
      "constant": true
    },
    {
      "inputs": [],
      "name": "nextStatus",
      "outputs": [],
      "stateMutability": "nonpayable",
      "type": "function"
    },
    {
      "inputs": [
        {
          "internalType": "address",
          "name": "_address",
          "type": "address"
        }
      ],
      "name": "addVoter",
      "outputs": [],
      "stateMutability": "nonpayable",
      "type": "function"
    },
    {
      "inputs": [
        {
          "internalType": "string",
          "name": "description",
          "type": "string"
        }
      ],
      "name": "addProposal",
      "outputs": [],
      "stateMutability": "nonpayable",
      "type": "function"
    },
    {
      "inputs": [
        {
          "internalType": "uint256",
          "name": "_proposalId",
          "type": "uint256"
        }
      ],
      "name": "vote",
      "outputs": [],
      "stateMutability": "nonpayable",
      "type": "function"
    },
    {
      "inputs": [],
      "name": "getWinner",
      "outputs": [
        {
          "internalType": "uint256",
          "name": "proposalId",
          "type": "uint256"
        },
        {
          "internalType": "string",
          "name": "description",
          "type": "string"
        },
        {
          "internalType": "uint256",
          "name": "voteCount",
          "type": "uint256"
        }
      ],
      "stateMutability": "view",
      "type": "function",
      "constant": true
    },
    {
      "inputs": [],
      "name": "reset",
      "outputs": [],
      "stateMutability": "nonpayable",
      "type": "function"
    }
  ],
  "bytecode": "0x608060405234801561001057600080fd5b5061003f61002b610044640100000000026401000000009004565b61004c640100000000026401000000009004565b610110565b600033905090565b60008060009054906101000a900473ffffffffffffffffffffffffffffffffffffffff169050816000806101000a81548173ffffffffffffffffffffffffffffffffffffffff021916908373ffffffffffffffffffffffffffffffffffffffff1602179055508173ffffffffffffffffffffffffffffffffffffffff168173ffffffffffffffffffffffffffffffffffffffff167f8be0079c531659141344cd1fd0a4f28419497f9722a3daafe3b4186f6b6457e060405160405180910390a35050565b61225a80620001206000396000f3fe608060405234801561001057600080fd5b50600436106100ec576000357c010000000000000000000000000000000000000000000000000000000090048063a1edffa2116100a9578063d826f88f11610083578063d826f88f14610211578063f2fde38b1461021b578063f4ab9adf14610237578063fc1c481e14610253576100ec565b8063a1edffa2146101a2578063a3ec138d146101c0578063bb20844e146101f3576100ec565b80630121b93f146100f1578063013cf08b1461010d5780632fdae3c51461013e578063715018a61461015a5780638da5cb5b146101645780638e7ea5b214610182575b600080fd5b61010b600480360381019061010691906117b8565b61025d565b005b610127600480360381019061012291906117b8565b61065e565b60405161013592919061188d565b60405180910390f35b61015860048036038101906101539190611922565b61071a565b005b610162610976565b005b61016c6109fe565b60405161017991906119b0565b60405180910390f35b61018a610a27565b604051610199939291906119cb565b60405180910390f35b6101aa610bf8565b6040516101b79190611a80565b60405180910390f35b6101da60048036038101906101d59190611ac7565b610c0b565b6040516101ea9493929190611b0f565b60405180910390f35b6101fb610c55565b6040516102089190611b54565b60405180910390f35b610219610c5b565b005b61023560048036038101906102309190611ac7565b610df0565b005b610251600480360381019061024c9190611ac7565b610ee7565b005b61025b6111be565b005b600380600581111561027257610271611a09565b5b600360009054906101000a900460ff16600581111561029457610293611a09565b5b146102d4576040517f08c379a00000000000000000000000000000000000000000000000000000000081526004016102cb90611bbb565b60405180910390fd5b60011515600260003373ffffffffffffffffffffffffffffffffffffffff1673ffffffffffffffffffffffffffffffffffffffff16815260200190815260200160002060000160009054906101000a900460ff16151514801561037a5750600154600260003373ffffffffffffffffffffffffffffffffffffffff1673ffffffffffffffffffffffffffffffffffffffff16815260200190815260200160002060020154145b6103b9576040517f08c379a00000000000000000000000000000000000000000000000000000000081526004016103b090611c27565b60405180910390fd5b6004805490508210610400576040517f08c379a00000000000000000000000000000000000000000000000000000000081526004016103f790611c93565b60405180910390fd5b60001515600260003373ffffffffffffffffffffffffffffffffffffffff1673ffffffffffffffffffffffffffffffffffffffff16815260200190815260200160002060000160019054906101000a900460ff1615151480156104a65750600154600260003373ffffffffffffffffffffffffffffffffffffffff1673ffffffffffffffffffffffffffffffffffffffff16815260200190815260200160002060020154145b6104e5576040517f08c379a00000000000000000000000000000000000000000000000000000000081526004016104dc90611cff565b60405180910390fd5b600482815481106104f9576104f8611d1f565b5b9060005260206000209060020201600101600081548092919061051b90611d7d565b91905055506001600260003373ffffffffffffffffffffffffffffffffffffffff1673ffffffffffffffffffffffffffffffffffffffff16815260200190815260200160002060000160016101000a81548160ff02191690831515021790555081600260003373ffffffffffffffffffffffffffffffffffffffff1673ffffffffffffffffffffffffffffffffffffffff168152602001908152602001600020600101819055506004600554815481106105d8576105d7611d1f565b5b906000526020600020906002020160010154600483815481106105fe576105fd611d1f565b5b906000526020600020906002020160010154111561061e57816005819055505b6001547fea66f58e474bc09f580000e81f31b334d171db387d0c6098ba47bd897741679b3384604051610652929190611dc5565b60405180910390a25050565b6004818154811061066e57600080fd5b906000526020600020906002020160009150905080600001805461069190611e1d565b80601f01602080910402602001604051908101604052809291908181526020018280546106bd90611e1d565b801561070a5780601f106106df5761010080835404028352916020019161070a565b820191906000526020600020905b8154815290600101906020018083116106ed57829003601f168201915b5050505050908060010154905082565b600180600581111561072f5761072e611a09565b5b600360009054906101000a900460ff16600581111561075157610750611a09565b5b14610791576040517f08c379a000000000000000000000000000000000000000000000000000000000815260040161078890611bbb565b60405180910390fd5b60011515600260003373ffffffffffffffffffffffffffffffffffffffff1673ffffffffffffffffffffffffffffffffffffffff16815260200190815260200160002060000160009054906101000a900460ff1615151480156108375750600154600260003373ffffffffffffffffffffffffffffffffffffffff1673ffffffffffffffffffffffffffffffffffffffff16815260200190815260200160002060020154145b610876576040517f08c379a000000000000000000000000000000000000000000000000000000000815260040161086d90611c27565b60405180910390fd5b6004604051806040016040528085858080601f016020809104026020016040519081016040528093929190818152602001838380828437600081840152601f19601f820116905080830192505050505050508152602001600081525090806001815401808255809150506001900390600052602060002090600202016000909190919091506000820151816000019080519060200190610917929190611642565b506020820151816001015550506001547f3208633ccd85607915adb419339f1df32fc23edbaae4f5345ad3faf378f17a2833600160048054905061095b9190611e4e565b604051610969929190611dc5565b60405180910390a2505050565b61097e6113b0565b73ffffffffffffffffffffffffffffffffffffffff1661099c6109fe565b73ffffffffffffffffffffffffffffffffffffffff16146109f2576040517f08c379a00000000000000000000000000000000000000000000000000000000081526004016109e990611ece565b60405180910390fd5b6109fc60006113b8565b565b60008060009054906101000a900473ffffffffffffffffffffffffffffffffffffffff16905090565b6000606060006005806005811115610a4257610a41611a09565b5b600360009054906101000a900460ff166005811115610a6457610a63611a09565b5b14610aa4576040517f08c379a0000000000000000000000000000000000000000000000000000000008152600401610a9b90611bbb565b60405180910390fd5b6000600460055481548110610abc57610abb611d1f565b5b90600052602060002090600202016001015403610b0e576040517f08c379a0000000000000000000000000000000000000000000000000000000008152600401610b0590611f3a565b60405180910390fd5b600554600460055481548110610b2757610b26611d1f565b5b9060005260206000209060020201600001600460055481548110610b4e57610b4d611d1f565b5b906000526020600020906002020160010154818054610b6c90611e1d565b80601f0160208091040260200160405190810160405280929190818152602001828054610b9890611e1d565b8015610be55780601f10610bba57610100808354040283529160200191610be5565b820191906000526020600020905b815481529060010190602001808311610bc857829003601f168201915b5050505050915093509350935050909192565b600360009054906101000a900460ff1681565b60026020528060005260406000206000915090508060000160009054906101000a900460ff16908060000160019054906101000a900460ff16908060010154908060020154905084565b60015481565b610c636113b0565b73ffffffffffffffffffffffffffffffffffffffff16610c816109fe565b73ffffffffffffffffffffffffffffffffffffffff1614610cd7576040517f08c379a0000000000000000000000000000000000000000000000000000000008152600401610cce90611ece565b60405180910390fd5b6005806005811115610cec57610ceb611a09565b5b600360009054906101000a900460ff166005811115610d0e57610d0d611a09565b5b14610d4e576040517f08c379a0000000000000000000000000000000000000000000000000000000008152600401610d4590611bbb565b60405180910390fd5b60016000815480929190610d6190611d7d565b91905055506000600360009054906101000a900460ff169050600360006101000a81549060ff021916905560046000610d9a91906116c8565b6005600090557f1d520e327caba26c444617e7d36e7900df66f5e7cf7507e5ec5ffcda9d07e33581600360009054906101000a900460ff16600154604051610de493929190611f5a565b60405180910390a15050565b610df86113b0565b73ffffffffffffffffffffffffffffffffffffffff16610e166109fe565b73ffffffffffffffffffffffffffffffffffffffff1614610e6c576040517f08c379a0000000000000000000000000000000000000000000000000000000008152600401610e6390611ece565b60405180910390fd5b600073ffffffffffffffffffffffffffffffffffffffff168173ffffffffffffffffffffffffffffffffffffffff1603610edb576040517f08c379a0000000000000000000000000000000000000000000000000000000008152600401610ed290612003565b60405180910390fd5b610ee4816113b8565b50565b610eef6113b0565b73ffffffffffffffffffffffffffffffffffffffff16610f0d6109fe565b73ffffffffffffffffffffffffffffffffffffffff1614610f63576040517f08c379a0000000000000000000000000000000000000000000000000000000008152600401610f5a90611ece565b60405180910390fd5b6000806005811115610f7857610f77611a09565b5b600360009054906101000a900460ff166005811115610f9a57610f99611a09565b5b14610fda576040517f08c379a0000000000000000000000000000000000000000000000000000000008152600401610fd190611bbb565b60405180910390fd5b60011515600260008473ffffffffffffffffffffffffffffffffffffffff1673ffffffffffffffffffffffffffffffffffffffff16815260200190815260200160002060000160009054906101000a900460ff1615151480156110805750600154600260008473ffffffffffffffffffffffffffffffffffffffff1673ffffffffffffffffffffffffffffffffffffffff16815260200190815260200160002060020154145b156110c0576040517f08c379a00000000000000000000000000000000000000000000000000000000081526004016110b79061206f565b60405180910390fd5b604051806080016040528060011515815260200160001515815260200160008152602001600154815250600260008473ffffffffffffffffffffffffffffffffffffffff1673ffffffffffffffffffffffffffffffffffffffff16815260200190815260200160002060008201518160000160006101000a81548160ff02191690831515021790555060208201518160000160016101000a81548160ff02191690831515021790555060408201518160010155606082015181600201559050506001547ff16ce2c2236e2c6e3df646f80d657bceef4cd7f3a240c47e82adfa17a5f47241836040516111b291906119b0565b60405180910390a25050565b6111c66113b0565b73ffffffffffffffffffffffffffffffffffffffff166111e46109fe565b73ffffffffffffffffffffffffffffffffffffffff161461123a576040517f08c379a000000000000000000000000000000000000000000000000000000000815260040161123190611ece565b60405180910390fd5b60058081111561124d5761124c611a09565b5b600360009054906101000a900460ff16600581111561126f5761126e611a09565b5b036112af576040517f08c379a00000000000000000000000000000000000000000000000000000000081526004016112a6906120db565b60405180910390fd5b600460058111156112c3576112c2611a09565b5b600360009054906101000a900460ff1660058111156112e5576112e4611a09565b5b036112f3576112f261147c565b5b6000600360009054906101000a900460ff169050600181600581111561131c5761131b611a09565b5b61132691906120fb565b600581111561133857611337611a09565b5b600360006101000a81548160ff0219169083600581111561135c5761135b611a09565b5b02179055507f1d520e327caba26c444617e7d36e7900df66f5e7cf7507e5ec5ffcda9d07e33581600360009054906101000a900460ff166001546040516113a593929190611f5a565b60405180910390a150565b600033905090565b60008060009054906101000a900473ffffffffffffffffffffffffffffffffffffffff169050816000806101000a81548173ffffffffffffffffffffffffffffffffffffffff021916908373ffffffffffffffffffffffffffffffffffffffff1602179055508173ffffffffffffffffffffffffffffffffffffffff168173ffffffffffffffffffffffffffffffffffffffff167f8be0079c531659141344cd1fd0a4f28419497f9722a3daafe3b4186f6b6457e060405160405180910390a35050565b6114846113b0565b73ffffffffffffffffffffffffffffffffffffffff166114a26109fe565b73ffffffffffffffffffffffffffffffffffffffff16146114f8576040517f08c379a00000000000000000000000000000000000000000000000000000000081526004016114ef90611ece565b60405180910390fd5b600480600581111561150d5761150c611a09565b5b600360009054906101000a900460ff16600581111561152f5761152e611a09565b5b1461156f576040517f08c379a000000000000000000000000000000000000000000000000000000000815260040161156690611bbb565b60405180910390fd5b60006004805490501180156115ac5750600060046005548154811061159757611596611d1f565b5b90600052602060002090600202016001015414155b1561163f576001547f489bcd817ef3b7a4501d17c451f6db129fe3e0390cefc09697e56f6fd7b435d16005546004600554815481106115ee576115ed611d1f565b5b906000526020600020906002020160000160046005548154811061161557611614611d1f565b5b906000526020600020906002020160010154604051611636939291906121e6565b60405180910390a25b50565b82805461164e90611e1d565b90600052602060002090601f01602090048101928261167057600085556116b7565b82601f1061168957805160ff19168380011785556116b7565b828001600101855582156116b7579182015b828111156116b657825182559160200191906001019061169b565b5b5090506116c491906116ec565b5090565b50805460008255600202906000526020600020908101906116e99190611709565b50565b5b808211156117055760008160009055506001016116ed565b5090565b5b8082111561173457600080820160006117239190611738565b60018201600090555060020161170a565b5090565b50805461174490611e1d565b6000825580601f106117565750611775565b601f01602090049060005260206000209081019061177491906116ec565b5b50565b600080fd5b600080fd5b6000819050919050565b61179581611782565b81146117a057600080fd5b50565b6000813590506117b28161178c565b92915050565b6000602082840312156117ce576117cd611778565b5b60006117dc848285016117a3565b91505092915050565b600081519050919050565b600082825260208201905092915050565b60005b8381101561181f578082015181840152602081019050611804565b8381111561182e576000848401525b50505050565b6000601f19601f8301169050919050565b6000611850826117e5565b61185a81856117f0565b935061186a818560208601611801565b61187381611834565b840191505092915050565b61188781611782565b82525050565b600060408201905081810360008301526118a78185611845565b90506118b6602083018461187e565b9392505050565b600080fd5b600080fd5b600080fd5b60008083601f8401126118e2576118e16118bd565b5b8235905067ffffffffffffffff8111156118ff576118fe6118c2565b5b60208301915083600182028301111561191b5761191a6118c7565b5b9250929050565b6000806020838503121561193957611938611778565b5b600083013567ffffffffffffffff8111156119575761195661177d565b5b611963858286016118cc565b92509250509250929050565b600073ffffffffffffffffffffffffffffffffffffffff82169050919050565b600061199a8261196f565b9050919050565b6119aa8161198f565b82525050565b60006020820190506119c560008301846119a1565b92915050565b60006060820190506119e0600083018661187e565b81810360208301526119f28185611845565b9050611a01604083018461187e565b949350505050565b7f4e487b7100000000000000000000000000000000000000000000000000000000600052602160045260246000fd5b60068110611a4957611a48611a09565b5b50565b6000819050611a5a82611a38565b919050565b6000611a6a82611a4c565b9050919050565b611a7a81611a5f565b82525050565b6000602082019050611a956000830184611a71565b92915050565b611aa48161198f565b8114611aaf57600080fd5b50565b600081359050611ac181611a9b565b92915050565b600060208284031215611add57611adc611778565b5b6000611aeb84828501611ab2565b91505092915050565b60008115159050919050565b611b0981611af4565b82525050565b6000608082019050611b246000830187611b00565b611b316020830186611b00565b611b3e604083018561187e565b611b4b606083018461187e565b95945050505050565b6000602082019050611b69600083018461187e565b92915050565b7f4e6f7420616c6c6f77656420617420746869732074696d650000000000000000600082015250565b6000611ba56018836117f0565b9150611bb082611b6f565b602082019050919050565b60006020820190508181036000830152611bd481611b98565b9050919050565b7f566f746572206d7573742062652077686974656c697374656400000000000000600082015250565b6000611c116019836117f0565b9150611c1c82611bdb565b602082019050919050565b60006020820190508181036000830152611c4081611c04565b9050919050565b7f4e6f7420612076616c69642070726f706f73616c204944000000000000000000600082015250565b6000611c7d6017836117f0565b9150611c8882611c47565b602082019050919050565b60006020820190508181036000830152611cac81611c70565b9050919050565b7f566f7465722068617320616c726561647920766f746564000000000000000000600082015250565b6000611ce96017836117f0565b9150611cf482611cb3565b602082019050919050565b60006020820190508181036000830152611d1881611cdc565b9050919050565b7f4e487b7100000000000000000000000000000000000000000000000000000000600052603260045260246000fd5b7f4e487b7100000000000000000000000000000000000000000000000000000000600052601160045260246000fd5b6000611d8882611782565b91507fffffffffffffffffffffffffffffffffffffffffffffffffffffffffffffffff8203611dba57611db9611d4e565b5b600182019050919050565b6000604082019050611dda60008301856119a1565b611de7602083018461187e565b9392505050565b7f4e487b7100000000000000000000000000000000000000000000000000000000600052602260045260246000fd5b60006002820490506001821680611e3557607f821691505b602082108103611e4857611e47611dee565b5b50919050565b6000611e5982611782565b9150611e6483611782565b925082821015611e7757611e76611d4e565b5b828203905092915050565b7f4f776e61626c653a2063616c6c6572206973206e6f7420746865206f776e6572600082015250565b6000611eb86020836117f0565b9150611ec382611e82565b602082019050919050565b60006020820190508181036000830152611ee781611eab565b9050919050565b7f53657373696f6e20656e6465642077697468206e6f20766f7465000000000000600082015250565b6000611f24601a836117f0565b9150611f2f82611eee565b602082019050919050565b60006020820190508181036000830152611f5381611f17565b9050919050565b6000606082019050611f6f6000830186611a71565b611f7c6020830185611a71565b611f89604083018461187e565b949350505050565b7f4f776e61626c653a206e6577206f776e657220697320746865207a65726f206160008201527f6464726573730000000000000000000000000000000000000000000000000000602082015250565b6000611fed6026836117f0565b9150611ff882611f91565b604082019050919050565b6000602082019050818103600083015261201c81611fe0565b9050919050565b7f566f74657220616c72656164792077686974656c697374656400000000000000600082015250565b60006120596019836117f0565b915061206482612023565b602082019050919050565b600060208201905081810360008301526120888161204c565b9050919050565b7f566f74652073657373696f6e2068617320616c726561647920656e6465640000600082015250565b60006120c5601e836117f0565b91506120d08261208f565b602082019050919050565b600060208201905081810360008301526120f4816120b8565b9050919050565b600061210682611782565b915061211183611782565b9250827fffffffffffffffffffffffffffffffffffffffffffffffffffffffffffffffff0382111561214657612145611d4e565b5b828201905092915050565b60008190508160005260206000209050919050565b6000815461217381611e1d565b61217d81866117f0565b9450600182166000811461219857600181146121aa576121dd565b60ff19831686526020860193506121dd565b6121b385612151565b60005b838110156121d5578154818901526001820191506020810190506121b6565b808801955050505b50505092915050565b60006060820190506121fb600083018661187e565b818103602083015261220d8185612166565b905061221c604083018461187e565b94935050505056fea264697066735822122057c04075b837dbd4e1562897134125fbcce87a5040bd4e457ab7f4a75c74698364736f6c634300080d0033",
  "immutableReferences": {},
  "source": "// SPDX-License-Identifier: MIT\n\npragma solidity 0.8.13;\n\nimport \"@openzeppelin/contracts/access/Ownable.sol\";\n\n/// @title Voting\n/// @author Damien B\n/// @notice Voting system\n///         In case of equality on a proposal, the first proposal is returned\n///         In case not vote has been done during the voting session, the winning proposal getter will revert\ncontract Voting is Ownable {\n    /// @dev Represents a voter\n    struct Voter {\n        bool isRegistered;\n        bool hasVoted;\n        uint256 votedProposalId;\n        uint256 sessionId;\n    }\n\n    /// @dev Represents a proposal from a voter\n    struct Proposal {\n        string description;\n        uint256 voteCount;\n    }\n\n    /// @dev Status of the current voting session\n    enum WorkflowStatus {\n        RegisteringVoters,\n        ProposalsRegistrationStarted,\n        ProposalsRegistrationEnded,\n        VotingSessionStarted,\n        VotingSessionEnded,\n        VotesTallied\n    }\n\n    /// @dev Voting session Id\n    ///      As we can't delete mapping we'll keep track of voting through this session Id\n    uint256 public votingSessionId;\n\n    /// @dev Whitelist of voters\n    mapping(address => Voter) public voters;\n\n    /// @dev Current status of the workflow\n    ///      By default will be set 0 (RegisteringVoters)\n    ///      Public visibility set to let anyone get the current state of the workflow\n    WorkflowStatus public workflowStatus;\n\n    /// @dev Proposals, list of proposals from voters\n    //  @todo: We may add a getter to know the length of proposals for web3 usage\n    Proposal[] public proposals;\n\n    /// @dev We store the proposal which currently win\n    uint256 private winningProposalId;\n\n    /// @dev Revert if not called by a whitelisted voter account\n    modifier onlyVoter() {\n        require(\n            voters[msg.sender].isRegistered == true && voters[msg.sender].sessionId == votingSessionId,\n            \"Voter must be whitelisted\"\n        );\n        _;\n    }\n\n    /// @dev Revert if called from the wrong voting session status\n    /// @param _status The workflow status we want to allow at this time\n    modifier onlyStatus(WorkflowStatus _status) {\n        require(workflowStatus == _status, \"Not allowed at this time\");\n        _;\n    }\n\n    /// @dev Event when a voter has been added\n    /// @param voterAddress The voter address\n    event VoterRegistered(address voterAddress, uint256 indexed votingSessionId);\n\n    /// @dev Event when the workflow state has changed\n    /// @param previousStatus Status we had previously\n    /// @param newStatus Status we have from now\n    /// @param votingSessionId Identifier of the current voting session\n    event WorkflowStatusChange(\n        WorkflowStatus previousStatus,\n        WorkflowStatus newStatus,\n        uint256 votingSessionId\n    );\n\n    /// @dev Event when a new proposal has been submitted\n    /// @param voter Voter address\n    /// @param proposalId The proposal ID just registered\n    /// @param votingSessionId Identifier of the current voting session\n    event ProposalRegistered(address voter, uint256 proposalId, uint256 indexed votingSessionId);\n\n    /// @dev Event when a voter has voted\n    /// @param voter The voter address\n    /// @param proposalId The proposal the voter has voted for\n    /// @param votingSessionId Identifier of the current voting session\n    event Voted(address voter, uint256 proposalId, uint256 indexed votingSessionId);\n\n    /// @dev Event when a winning proposal is confirmed\n    /// @param proposalId The winning proposal ID\n    /// @param description The winning proposal description\n    /// @param voteCount The winning proposal number of votes\n    /// @param votingSessionId Identifier of the current voting session\n    event Winning(uint256 proposalId, string description, uint256 voteCount, uint256 indexed votingSessionId);\n\n    /// @notice Change the workflow status to the next one\n    //  @emit WorkflowStatusChange\n    function nextStatus() external onlyOwner {\n        // Only change status if the whole process is not finished\n        require(\n            workflowStatus != WorkflowStatus.VotesTallied,\n            \"Vote session has already ended\"\n        );\n\n        // Voting sessions ended, let's count votes\n        if (workflowStatus == WorkflowStatus.VotingSessionEnded) {\n            _tallyVotes();\n        }\n\n        WorkflowStatus previousWorkflowStatus = workflowStatus;\n        workflowStatus = WorkflowStatus(uint256(previousWorkflowStatus) + 1);\n\n        emit WorkflowStatusChange(previousWorkflowStatus, workflowStatus, votingSessionId);\n    }\n\n    /// @notice Add a voter to the whitelist\n    /// @param _address Voter address to whitelist\n    //  @emit VoterRegistered\n    function addVoter(address _address)\n        external\n        onlyOwner\n        onlyStatus(WorkflowStatus.RegisteringVoters)\n    {\n        // Voter can be only added once\n        require(\n            !(voters[_address].isRegistered == true && voters[_address].sessionId == votingSessionId),\n            \"Voter already whitelisted\"\n        );\n\n        voters[_address] = Voter(true, false, 0, votingSessionId);\n\n        emit VoterRegistered(_address, votingSessionId);\n    }\n\n    /// @notice Add a proposal\n    //  @emit ProposalRegistered\n    function addProposal(string calldata description)\n        external\n        onlyStatus(WorkflowStatus.ProposalsRegistrationStarted)\n        onlyVoter\n    {\n        proposals.push(Proposal(description, 0));\n\n        emit ProposalRegistered(msg.sender, proposals.length - 1, votingSessionId);\n    }\n\n    /// @notice Count a vote for a proposal\n    /// @param _proposalId The proposal ID the voter votes for\n    //  @emit Voted\n    function vote(uint256 _proposalId)\n        external\n        onlyStatus(WorkflowStatus.VotingSessionStarted)\n        onlyVoter\n    {\n        require(_proposalId < proposals.length, \"Not a valid proposal ID\");\n        require(\n            voters[msg.sender].hasVoted == false && voters[msg.sender].sessionId == votingSessionId,\n            \"Voter has already voted\"\n        );\n\n        proposals[_proposalId].voteCount++;\n        voters[msg.sender].hasVoted = true;\n        voters[msg.sender].votedProposalId = _proposalId;\n\n        // Check if this proposal is now the winning proposal\n        // In case of equality the first proposal voted will wins\n        if (proposals[_proposalId].voteCount > proposals[winningProposalId].voteCount) {\n            winningProposalId = _proposalId;\n        }\n\n        emit Voted(msg.sender, _proposalId, votingSessionId);\n    }\n\n    /// @notice Return the winning proposal id and description\n    /// @return proposalId uint256 The winning proposal ID\n    /// @return description string The winning proposal description\n    /// @return voteCount uint256 Vote counts for this proposal\n    function getWinner()\n        public\n        view\n        onlyStatus(WorkflowStatus.VotesTallied)\n        returns (uint256 proposalId, string memory description, uint256 voteCount)\n    {\n        require(proposals[winningProposalId].voteCount != 0, \"Session ended with no vote\");\n\n        return (winningProposalId, proposals[winningProposalId].description, proposals[winningProposalId].voteCount);\n    }\n\n    /// @notice count all votes and set the winning proposal\n    /// @dev this function is called internally from the nextStatus function\n    //  @emit Winning\n    function _tallyVotes()\n        private\n        onlyOwner\n        onlyStatus(WorkflowStatus.VotingSessionEnded)\n    {\n        // Make sure we have at lease one vote\n        if (proposals.length > 0 && proposals[winningProposalId].voteCount != 0) {\n            emit Winning(\n                winningProposalId,\n                proposals[winningProposalId].description,\n                proposals[winningProposalId].voteCount,\n                votingSessionId\n            );\n        }\n    }\n\n    /// @notice Reset the contract to its original state\n    //  @emit WorkflowStatusChange\n    function reset()\n        public\n        onlyOwner\n        onlyStatus(WorkflowStatus.VotesTallied)\n    {\n        votingSessionId ++;\n        WorkflowStatus previousWorkflowStatus = workflowStatus;\n        delete workflowStatus;\n        delete proposals;\n        delete winningProposalId;\n\n        emit WorkflowStatusChange(previousWorkflowStatus, workflowStatus, votingSessionId);\n    }\n}\n",
  "sourcePath": "/home/damien/Development/Alyra Blockchain/Developpeur-Ethereum-Template/6. Dapp/contracts/Voting.sol",
  "compiler": {
    "name": "solc",
    "version": "0.8.13+commit.abaa5c0e.Emscripten.clang"
  },
  "schemaVersion": "3.4.7",
  "updatedAt": "2022-04-22T13:47:11.894Z",
  "networkType": "ethereum",
  "devdoc": {
    "author": "Damien B",
    "events": {
      "ProposalRegistered(address,uint256,uint256)": {
        "details": "Event when a new proposal has been submitted",
        "params": {
          "proposalId": "The proposal ID just registered",
          "voter": "Voter address",
          "votingSessionId": "Identifier of the current voting session"
        }
      },
      "Voted(address,uint256,uint256)": {
        "details": "Event when a voter has voted",
        "params": {
          "proposalId": "The proposal the voter has voted for",
          "voter": "The voter address",
          "votingSessionId": "Identifier of the current voting session"
        }
      },
      "VoterRegistered(address,uint256)": {
        "details": "Event when a voter has been added",
        "params": {
          "voterAddress": "The voter address"
        }
      },
      "Winning(uint256,string,uint256,uint256)": {
        "details": "Event when a winning proposal is confirmed",
        "params": {
          "description": "The winning proposal description",
          "proposalId": "The winning proposal ID",
          "voteCount": "The winning proposal number of votes",
          "votingSessionId": "Identifier of the current voting session"
        }
      },
      "WorkflowStatusChange(uint8,uint8,uint256)": {
        "details": "Event when the workflow state has changed",
        "params": {
          "newStatus": "Status we have from now",
          "previousStatus": "Status we had previously",
          "votingSessionId": "Identifier of the current voting session"
        }
      }
    },
    "kind": "dev",
    "methods": {
      "addVoter(address)": {
        "params": {
          "_address": "Voter address to whitelist"
        }
      },
      "getWinner()": {
        "returns": {
          "description": "string The winning proposal description",
          "proposalId": "uint256 The winning proposal ID",
          "voteCount": "uint256 Vote counts for this proposal"
        }
      },
      "owner()": {
        "details": "Returns the address of the current owner."
      },
      "renounceOwnership()": {
        "details": "Leaves the contract without owner. It will not be possible to call `onlyOwner` functions anymore. Can only be called by the current owner. NOTE: Renouncing ownership will leave the contract without an owner, thereby removing any functionality that is only available to the owner."
      },
      "transferOwnership(address)": {
        "details": "Transfers ownership of the contract to a new account (`newOwner`). Can only be called by the current owner."
      },
      "vote(uint256)": {
        "params": {
          "_proposalId": "The proposal ID the voter votes for"
        }
      }
    },
    "stateVariables": {
      "proposals": {
        "details": "Proposals, list of proposals from voters"
      },
      "voters": {
        "details": "Whitelist of voters"
      },
      "votingSessionId": {
        "details": "Voting session Id      As we can't delete mapping we'll keep track of voting through this session Id"
      },
      "winningProposalId": {
        "details": "We store the proposal which currently win"
      },
      "workflowStatus": {
        "details": "Current status of the workflow      By default will be set 0 (RegisteringVoters)      Public visibility set to let anyone get the current state of the workflow"
      }
    },
    "title": "Voting",
    "version": 1
  },
  "userdoc": {
    "kind": "user",
    "methods": {
      "addProposal(string)": {
        "notice": "Add a proposal"
      },
      "addVoter(address)": {
        "notice": "Add a voter to the whitelist"
      },
      "getWinner()": {
        "notice": "Return the winning proposal id and description"
      },
      "nextStatus()": {
        "notice": "Change the workflow status to the next one"
      },
      "reset()": {
        "notice": "Reset the contract to its original state"
      },
      "vote(uint256)": {
        "notice": "Count a vote for a proposal"
      }
    },
    "notice": "Voting system         In case of equality on a proposal, the first proposal is returned         In case not vote has been done during the voting session, the winning proposal getter will revert",
    "version": 1
  }
}